:1001BA0080402010080402010042E7420081663CA8
:1001980078087C007D007BFF7A0179BA7E007F10A9
:1001A8001200D37B007A0079087D557C0012012665
:0201B80080F1D4
:0B01D600EF1FAC0670011E4C70F622FB
:0A0126008B188A19891A8C1B8D1C96
:10013000E4FDEDC3940874809480505BAB18AA1959
:10014000A91A8D827583001200F9FF7580FFE4FE05
:10015000EEC39408748094805018EFC413131354A2
:100160000124FF92B4EF25E0FFD2B60000C2B60E24
:1001700080DED2B50000C2B5ED2408F582E433F587
:1001800083AB18AA19A91A1200F9F4F580AF1CAEB6
:070190001B1201D60D809B3C
:010197002245
:030000000201CA30
:0C01CA00787FE4F6D8FD75811C020198D6
:10000300E709F608DFFA8046E709F208DFFA803EDF
:1000130088828C83E709F0A3DFFA8032E309F608CC
:10002300DFFA8078E309F208DFFA807088828C8334
:10003300E309F0A3DFFA806489828A83E0A3F608E8
:10004300DFFA805889828A83E0A3F208DFFA804CC2
:1000530080D280FA80C680D4806980F28033801099
:1000630080A680EA809A80A880DA80E280CA803302
:1000730089828A83ECFAE493A3C8C582C8CCC5837A
:10008300CCF0A3C8C582C8CCC583CCDFE9DEE7804A
:100093000D89828A83E493A3F608DFF9ECFAA9F0C9
:1000A300EDFB2289828A83ECFAE0A3C8C582C8CC1F
:1000B300C583CCF0A3C8C582C8CCC583CCDFEADE38
:1000C300E880DB89828A83E493A3F208DFF980CC9A
:1000D30088F0EF60010E4E60C388F0ED2402B40493
:1000E3000050B9F582EB2402B4040050AF2323453A
:0600F3008223900053730C
:1000F900BB010CE58229F582E5833AF583E02250BC
:1001090006E92582F8E622BBFE06E92582F8E22205
:0D011900E58229F582E5833AF583E493221F
:00000001FF
