:1000F10008107FBFDFEFF7FBFDFE080800003E415F
:0401010041413E003A
:10008F0075807FE4F518C3E5189408748094805048
:10009F00EF74102518F8E6F58074082518F8E6FFB8
:1000AF001200C27F887E13120106E4FF1200C20500
:0300BF001880D3D3
:0B010600EF1FAC0670011E4C70F622CB
:1000C200C2B6C2B5E4FEEEC39408748094805018A0
:1000D200EFC4131313540124FF92B4EF25E0FFD2AF
:0E00E200B60000C2B60E80DED2B50000C2B578
:0100F00022ED
:03000000020003F8
:0C000300787FE4F6D8FD75811802004AF1
:10000F0002008FE493A3F8E493A34003F68001F278
:10001F0008DFF48029E493A3F85407240CC8C333F2
:10002F00C4540F4420C8834004F456800146F6DFC1
:10003F00E4800B01020408102040809000F1E47E60
:10004F00019360BCA3FF543F30E509541FFEE493B6
:10005F00A360010ECF54C025E060A840B8E493A37D
:10006F00FAE493A3F8E493A3C8C582C8CAC583CAA8
:10007F00F0A3C8C582C8CAC583CADFE9DEE780BE60
:0101050000F9
:00000001FF
