:1001C400003F065B4F666D7D077F6F777C395E79F4
:0901D400717F7F7F7F7F7F7F7FB9
:0B01E900EF1FAC0670011E4C70F622E8
:080126008B108A1189128D1360
:10012E00E4FFEFC39408748094805069E4F580EF87
:10013E00B40800504D90014AF8282873020162025B
:10014E00016602016E02017202017A02017E020153
:10015E008602018AD2A28002C2A2D2A3D2A4802297
:10016E00D2A28002C2A2C2A3D2A48016D2A28002C0
:10017E00C2A2D2A3C2A4800AD2A28002C2A2C2A3E9
:10018E00C2A4AB10AA11A9128F827583001200F9B6
:05019E00F5800F808DCB
:0101A3002239
:1001A40078087C007D007BFF7A0179D57E007F088A
:1001B4001200D37B007A0079087D5512012680F362
:030000000201DD1D
:0C01DD00787FE4F6D8FD7581130201A4C0
:10000300E709F608DFFA8046E709F208DFFA803EDF
:1000130088828C83E709F0A3DFFA8032E309F608CC
:10002300DFFA8078E309F208DFFA807088828C8334
:10003300E309F0A3DFFA806489828A83E0A3F608E8
:10004300DFFA805889828A83E0A3F208DFFA804CC2
:1000530080D280FA80C680D4806980F28033801099
:1000630080A680EA809A80A880DA80E280CA803302
:1000730089828A83ECFAE493A3C8C582C8CCC5837A
:10008300CCF0A3C8C582C8CCC583CCDFE9DEE7804A
:100093000D89828A83E493A3F608DFF9ECFAA9F0C9
:1000A300EDFB2289828A83ECFAE0A3C8C582C8CC1F
:1000B300C583CCF0A3C8C582C8CCC583CCDFEADE38
:1000C300E880DB89828A83E493A3F208DFF980CC9A
:1000D30088F0EF60010E4E60C388F0ED2402B40493
:1000E3000050B9F582EB2402B4040050AF2323453A
:0600F3008223900053730C
:1000F900BB010CE58229F582E5833AF583E02250BC
:1001090006E92582F8E622BBFE06E92582F8E22205
:0D011900E58229F582E5833AF583E493221F
:00000001FF
