:0B021B00C288D2A8C28AD2AAD2AF22A9
:10020A007C007D05120038EF1F70011E144E70F736
:01021A0022C1
:1001F60012021BAB18AA19A91A90001BE4F5F012FB
:04020600011280EC75
:03000300020155A2
:10015500C0E0C0F0C083C082C0D075D008C2A87FFF
:10016500057E0012020A20B220AB18AA19A91A901E
:10017500001B12008DF58285F083743012001690F5
:10018500001BE475F0011200C57FF47E0112020A1E
:10019500D2A87FC47E0912020AD0D0D082D083D0E3
:0401A500F0D0E03284
:030013000201A93E
:1001A900C0E0C0F0C083C082C0D075D010C2AA7FA1
:1001B900057E0012020A20B320AB18AA19A91A90C9
:1001C900001B12008DF58285F083743112001690A0
:1001D900001BE475F0011200C57FF47E0112020ACA
:0D01E900D2AAD0D0D082D083D0F0D0E032A6
:03000000020006F5
:0C000600787FE4F6D8FD75811A0201F63F
:10001600F8BB010DE58229F582E5833AF583E8F020
:10002600225006E92582C8F622BBFE05E92582C8CC
:02003600F222B4
:10003800BC000BBE0029EF8DF084FFADF022E4CCAC
:10004800F875F008EF2FFFEE33FEEC33FCEE9DEC75
:10005800984005FCEE9DFE0FD5F0E9E4CEFD22EDBB
:10006800F8F5F0EE8420D21CFEADF075F008EF2F05
:10007800FFED33FD4007985006D5F0F222C398FDF6
:050088000FD5F0EA2293
:10008D00BB0110E58229F582E5833AF583E0F5F0B1
:10009D00A3E0225009E92582F886F008E622BBFE8E
:1000AD000AE92582F8E2F5F008E222E5832AF583D4
:0800BD00E993F5F0A3E9932299
:1000C500BB010DC58229C582C5833AC58302013F9F
:1000D5005011C58229F808E5F026F618F5F0E582F5
:1000E50036F622BBFE11C58229F808E225F0F5F0A7
:1000F500F218E23582F222F8E58229F582E5832AB3
:0D010500F58374019325F0F5F0E4933822A2
:10011200F8BB0111E58229F582E5833AF583E8F01F
:10012200E5F0A3F0225009E92582C8F608A6F022DC
:0D013200BBFE09E92582C8F2E5F008F222C3
:10013F00C5F0F8A3E028F0C5F0F8E582158270024B
:06014F001583E038F022E8
:00000001FF
