:1000CC00C0D075D000120140120127E4F53BAF3BC4
:1000DC00EF3395E0FEEF64224E70F3F53BFB7A00B4
:0700EC00791812001680E7ED
:0300030002007484
:10007400C0E0C0F0C083C082C0D075D008C2A874EC
:1000840018253BF87630053B7F647E00120155D27B
:0C009400A8D0D0D082D083D0F0D0E032D1
:030013000200A048
:1000A000C0E0C0F0C083C082C0D075D010C2AA74B6
:1000B00018253BF87631053B7F647E00120155D24E
:0C00C000AAD0D0D082D083D0F0D0E032A3
:1000F300C2A58F807F287E00120104D2A77F287EAD
:0101030000FB
:0A010400EF1F70011E144E70F72269
:0A014B00C2A7C2A61200F3C2A72249
:0F010E00AB3CAA3DA93E8D82758300120047FFCE
:0A011D00C2A7D2A61200F3C2A72267
:100127007F3812014B7F0C12014B7F0612014B7F68
:090137000112014B7F8002014B13
:060016008B3C8A3D893E8F
:10001C00120127E4FDEDC3941074809480500612F5
:10002C00010E0D80F07FC012014BEDC39420748043
:0A003C009480500612010E0D80F0B2
:010046002297
:0B014000C288D2A8C28AD2AAD2AF2285
:0A015500EF1F70011E144E70F72218
:03000000020006F5
:0C000600787FE4F6D8FD75813E0200CC46
:10004700BB010CE58229F582E5833AF583E022506E
:1000570006E92582F8E622BBFE06E92582F8E222B8
:0D006700E58229F582E5833AF583E49322D2
:00000001FF
