:1002FF0020211B0000000000000000000000000093
:10030F0000000000000000000000000000000000DE
:04031F0000000000DA
:1001B900120358120006AB18AA19A91A90001BE4D9
:1001C900F5F01200EA90001B120065F53CAB18AA85
:1001D90019A91A90001B120065C3941AE5F06480EE
:0401E900948040E9D5
:1001ED00E4F53DC3E53D941A74809480501BAB1823
:1001FD00AA19A91A853D82758300120016FF741B7A
:10020D00253DF8A607053D80DAAB18AA19A91A9065
:10021D00001BE4F5F01200EA7B007A00791B120254
:01022D00CA06
:02022E0080A6A8
:10032400C2A58F807F287E00120335D2A77F287E46
:0103340000C8
:0A033500EF1F70011E144E70F72236
:0A037100C2A7C2A6120324C2A722ED
:0F033F00AB3EAA3FA9408D82758300120016FFC6
:0A034E00C2A7D2A6120324C2A72200
:100358007F381203717F0C1203717F061203717FBD
:09036800011203717F8002037190
:0602CA008B3E8A3F8940D3
:1002D000120358E4FDEDC39410748094805006120C
:1002E000033F0D80F07FC0120371EDC39420748032
:0F02F0009480500612033F0D80F07F800203714F
:0D000600C2AFC288D2A8C28AD2AAD2AF224D
:0A037B00EF1F70011E144E70F722F0
:03000300020230C6
:10023000C0E0C0F0C083C082C0D075D008C2A87F23
:10024000057E0012037B20B220AB41AA42A9439055
:10025000001B120065F58285F08374301200439014
:10026000001BE475F00112009D7FF47E0112037BF8
:0D027000D2A8D0D0D082D083D0F0D0E03220
:0300130002027D69
:10027D00C0E0C0F0C083C082C0D075D010C2AA7FCC
:10028D00057E0012037B20B320AB41AA42A9439007
:10029D00001B120065F58285F083743112004390C6
:1002AD00001BE475F00112009D7FF47E0112037BAB
:0D02BD00D2AAD0D0D082D083D0F0D0E032D1
:0300000002012DCD
:0C012D00787FE4F6D8FD75814302017470
:10001600BB010CE58229F582E5833AF583E022509F
:1000260006E92582F8E622BBFE06E92582F8E222E9
:0D003600E58229F582E5833AF583E4932203
:10004300F8BB010DE58229F582E5833AF583E8F0F3
:10005300225006E92582C8F622BBFE05E92582C89F
:02006300F22287
:10006500BB0110E58229F582E5833AF583E0F5F0D9
:10007500A3E0225009E92582F886F008E622BBFEB6
:100085000AE92582F8E2F5F008E222E5832AF583FC
:08009500E993F5F0A3E99322C1
:10009D00BB010DC58229C582C5833AC583020117EF
:1000AD005011C58229F808E5F026F618F5F0E5821D
:1000BD0036F622BBFE11C58229F808E225F0F5F0CF
:1000CD00F218E23582F222F8E58229F582E5832ADB
:0D00DD00F58374019325F0F5F0E4933822CB
:1000EA00F8BB0111E58229F582E5833AF583E8F048
:1000FA00E5F0A3F0225009E92582C8F608A6F02205
:0D010A00BBFE09E92582C8F2E5F008F222EB
:100139000201B9E493A3F8E493A34003F68001F222
:1001490008DFF48029E493A3F85407240CC8C333C7
:10015900C4540F4420C8834004F456800146F6DF96
:10016900E4800B01020408102040809002FFE47E25
:10017900019360BCA3FF543F30E509541FFEE4938B
:10018900A360010ECF54C025E060A840B8E493A352
:10019900FAE493A3F8E493A3C8C582C8CAC583CA7D
:1001A900F0A3C8C582C8CAC583CADFE9DEE780BE35
:0103230000D9
:10011700C5F0F8A3E028F0C5F0F8E5821582700273
:060127001583E038F02210
:00000001FF
