:100309001B1B0000000000000000000000000000AE
:0D03190000000000000000000000000000D7
:0601B90012000612035BB8
:1001BF00E4FFFE12037EE4FFFE12037EE4FFFE1255
:1001CF00037EE4FFFE12037EE4FFFE12037EE4FFD4
:1001DF00FE12037EE4FFFE12037EE4FFFE12037E97
:1001EF00E4FFFE12037EE4FFFE12037EE4F536C346
:1001FF00E536941A74809480501BAB18AA19A91A6B
:10020F00853682758300120016FF741B2536F8A6FB
:10021F0007053680DA7B007A00791B1202D8AB18FB
:0D022F00AA19A91A900041E4F5F01200EAA6
:02023C008081BF
:10032700C2A58F807FF47E01120338D2A77FF47EA7
:0103370001C4
:0A033800EF1F70011E144E70F72233
:0A037400C2A7C2A6120327C2A722E7
:0F034200AB37AA38A9398D82758300120016FFD8
:0A035100C2A7D2A6120327C2A722FA
:10035B007F381203747F0C1203747F061203747FB1
:09036B00011203747F8002037487
:0602D8008B378A388939DA
:1002DE0012035BE4FDEDC3941074809480500612FB
:1002EE0003420D80F07FC0120374EDC3942074801E
:0A02FE00948050061203420D80F0B8
:0103080022D2
:0B000600C288D2A8C28AD2AAD2AF22C0
:0A037E00EF1F70011E144E70F722ED
:0300030002023EB8
:10023E00C0E0C0F0C083C082C0D075D008C2A87F15
:10024E00057E0012037E20B220AB3AAA3BA93C9059
:10025E000041120065F58285F083743012004390E0
:10026E000041E475F00112009D7FF47E0112037EC1
:0D027E00D2A8D0D0D082D083D0F0D0E03212
:0300130002028B5B
:10028B00C0E0C0F0C083C082C0D075D010C2AA7FBE
:10029B00057E0012037E20B320AB3AAA3BA93C900B
:1002AB000041120065F58285F08374311200439092
:1002BB000041E475F00112009D7FF47E0112037E74
:0D02CB00D2AAD0D0D082D083D0F0D0E032C3
:0300000002012DCD
:0C012D00787FE4F6D8FD75813C02017477
:10001600BB010CE58229F582E5833AF583E022509F
:1000260006E92582F8E622BBFE06E92582F8E222E9
:0D003600E58229F582E5833AF583E4932203
:10004300F8BB010DE58229F582E5833AF583E8F0F3
:10005300225006E92582C8F622BBFE05E92582C89F
:02006300F22287
:10006500BB0110E58229F582E5833AF583E0F5F0D9
:10007500A3E0225009E92582F886F008E622BBFEB6
:100085000AE92582F8E2F5F008E222E5832AF583FC
:08009500E993F5F0A3E99322C1
:10009D00BB010DC58229C582C5833AC583020117EF
:1000AD005011C58229F808E5F026F618F5F0E5821D
:1000BD0036F622BBFE11C58229F808E225F0F5F0CF
:1000CD00F218E23582F222F8E58229F582E5832ADB
:0D00DD00F58374019325F0F5F0E4933822CB
:1000EA00F8BB0111E58229F582E5833AF583E8F048
:1000FA00E5F0A3F0225009E92582C8F608A6F02205
:0D010A00BBFE09E92582C8F2E5F008F222EB
:100139000201B9E493A3F8E493A34003F68001F222
:1001490008DFF48029E493A3F85407240CC8C333C7
:10015900C4540F4420C8834004F456800146F6DF96
:10016900E4800B0102040810204080900309E47E1A
:10017900019360BCA3FF543F30E509541FFEE4938B
:10018900A360010ECF54C025E060A840B8E493A352
:10019900FAE493A3F8E493A3C8C582C8CAC583CA7D
:1001A900F0A3C8C582C8CAC583CADFE9DEE780BE35
:0103260000D6
:10011700C5F0F8A3E028F0C5F0F8E5821582700273
:060127001583E038F02210
:00000001FF
