:10025F001A1B00000000000000000000000000005A
:0C026F0000000000000000000000000083
:0802E2001200061202B580FEB5
:10028100C2A58F807FF47E01120292D2A77FF47EF5
:01029100016B
:0A029200EF1F70011E144E70F722DA
:0A02CE00C2A7C2A6120281C2A72235
:0F029C00AB3EAA3FA9408D827583001201ACFFD3
:0A02AB00C2A7D2A6120281C2A72248
:1002B5007F381202CE7F0C1202CE7F061202CE7F4D
:0902C500011202CE7F800202CE7C
:06022E008B3E8A3F89406F
:100234001202B5E4FDEDC39410748094805006124C
:10024400029C0D80F07FC01202CEEDC39420748016
:0A0254009480500612029C0D80F009
:01025E00227D
:05027B000335303000E6
:0B000600D288D2A8D28AD2AAD2AF22A0
:0A02D800EF1F70011E144E70F72294
:03000300020128CF
:10012800C0E0C0F0C083C082C0D075D008C2A87F2C
:10013800327E001202D8AB38AA39A93A90001B12B5
:1001480001ACF582758300743012020C90001B74A8
:10015800011201D990001B1201ACC3941A74809447
:1001680080400EAB38AA39A93A90001A74011202DD
:100178000C7B007A00793512022E0535AB38AA3986
:10018800A93A90001B1201AC75F00A842430F537A7
:100198007F647E001202D8D2A8D0D0D082D083D07B
:0401A800F0D0E03281
:030013000200A246
:1000A200C0E0C0F0C083C082C0D075D010C2AA7FA9
:1000B200327E001202D8AB38AA39A93A90001B123C
:1000C20001ACF582758300743112020C90001B742E
:1000D200011201D990001B1201ACC3941A748094CE
:1000E20080400EAB38AA39A93A90001A7401120264
:1000F2000C7B007A00793512022E0536AB38AA390C
:10010200A93A90001B1201AC75F00A84E5F0243084
:10011200F5387F647E001202D8D2AAD0D0D082D025
:0601220083D0F0D0E032B2
:03000000020016E5
:0C001600787FE4F6D8FD75814002005DA3
:1001AC00BB010CE58229F582E5833AF583E0225008
:1001BC0006E92582F8E622BBFE06E92582F8E22252
:0D01CC00E58229F582E5833AF583E493226C
:1001D900BB010FF8E58229F582E5833AF583E0282A
:1001E900F0225009C58229F8E58226F622BBFE09CC
:1001F900C58229F8E22582F222F8EA2583F583E906
:0302090093282215
:10020C00F8BB010DE58229F582E5833AF583E8F028
:10021C00225006E92582C8F622BBFE05E92582C8D4
:02022C00F222BC
:100022000202E2E493A3F8E493A34003F68001F210
:1000320008DFF48029E493A3F85407240CC8C333DF
:10004200C4540F4420C8834004F456800146F6DFAE
:10005200E4800B010204081020408090025FE47EDD
:10006200019360BCA3FF543F30E509541FFEE493A3
:10007200A360010ECF54C025E060A840B8E493A36A
:10008200FAE493A3F8E493A3C8C582C8CAC583CA95
:10009200F0A3C8C582C8CAC583CADFE9DEE780BE4D
:01028000007D
:00000001FF
