:0A041D003F065B4F666D7D077F6FA1
:1003D80008160000000000000000012600010C00C3
:1003E800010D00012700020A0000010900010800B0
:100026007528017529017F0112000E7F011203F95F
:10003600E50C65286070E5096529606A850929AFC0
:10004600097E00EF7005759907805BEF64014E70BD
:10005600057599028050EF64024E7002801CEF64B1
:10006600034E7005759903803DEF64044E70057567
:1000760099048032EF64054E700575992E8027EF3E
:1000860064064E7005759905801CEF64074E700274
:100096008006EF64084E70057599068009759920EB
:1000A600E4F509850C28E50864087051E50E540F3F
:1000B60075F00AA4FFE50F540F2FF527E510540F2E
:1000C60075F00AA4FFE511540F2FF50DE512540F34
:1000D60075F00AA4FFE513540F2FF50CE514540F21
:1000E60075F00AA4FFE515540F7C002FFFEC35F0E0
:1000F600FE7D0A1201D68E0A8F0BE4F508E52775F8
:10010600F00A8475F00A84E5F090041D93F51DE568
:100116002775F00A84E5F093F51C431C80E50D7500
:10012600F00A8475F00A84E5F093F51BE50D75F089
:100136000A84E5F093F51A431A80E50C75F00A84F3
:1001460075F00A84E5F093F519E50C75F00A84E577
:10015600F093F518431880AE0AAF0B7C007D64124D
:1001660001E87C007D0A1201E8741D2DF5827404F5
:100176003CF583E493F517AE0AAF0B7C007D0A12BB
:1001860001E87C007D0A1201E8741D2DF5827404D5
:100196003CF583E493F5167B007A0079161202C9C2
:0301A6000200361E
:10000E00438902E4F58AF58CD2A9D2AFEF24FF9290
:02001E008C2232
:1003F900438920758BFF758DFF438780759850D28F
:09040900ACD2AFEF24FF928E2269
:0B041200EF1FAC0670011E4C70F622BC
:0602C9008B2A8A2B892C10
:1002CF00E4F52DC3E52D9408748094805073E4F504
:1002DF0080E52DB40800504D9002EEF828287302E7
:1002EF00032E02032A02032202031E020316020335
:1002FF001202030A020306D2A28002C2A2D2A3D222
:10030F00A48022D2A28002C2A2C2A3D2A48016D2FB
:10031F00A28002C2A2D2A3C2A4800AD2A28002C229
:10032F00A2C2A3C2A4AB2AAA2BA92C852D827583A6
:10033F00001201A9F5807F557E00120412052D8051
:01034F00822B
:01035000228A
:03000B000203519C
:10035100C0E0C0D00526C3E5269412748094804085
:100361004C7405250BF50BE4350AF50A752600C317
:10037100E50B94E8E50A94034033050C750A007512
:100381000B00E50C943C748094804021050D750CA4
:1003910000E50D943C7480948040120527750D0092
:1003A100E5279418748094804003752700D0D0D03D
:0203B100E03238
:030023000203B322
:1003B300C0E0C0D075D000C00030980B740E250883
:1003C300F8A6990508C2983099040509C299D00086
:0503D300D0D0D0E032A3
:0300000002023DBC
:0C023D00787FE4F6D8FD75812D02028464
:1001A900BB010CE58229F582E5833AF583E022500B
:1001B90006E92582F8E622BBFE06E92582F8E22255
:0D01C900E58229F582E5833AF583E493226F
:1001D600EF8DF0A4A8F0CF8CF0A428CE8DF0A42E3D
:0201E600FE22F7
:1001E800BC000BBE0029EF8DF084FFADF022E4CCFB
:1001F800F875F008EF2FFFEE33FEEC33FCEE9DECC4
:10020800984005FCEE9DFE0FD5F0E9E4CEFD22ED09
:10021800F8F5F0EE8420D21CFEADF075F008EF2F53
:10022800FFED33FD4007985006D5F0F222C398FD44
:050238000FD5F0EA22E1
:10024900020026E493A3F8E493A34003F68001F2A5
:1002590008DFF48029E493A3F85407240CC8C333B6
:10026900C4540F4420C8834004F456800146F6DF85
:10027900E4800B01020408102040809003D8E47E3A
:10028900019360BCA3FF543F30E509541FFEE4937A
:10029900A360010ECF54C025E060A840B8E493A341
:1002A900FAE493A3F8E493A3C8C582C8CAC583CA6C
:1002B900F0A3C8C582C8CAC583CADFE9DEE780BE24
:0103F8000004
:00000001FF
