:0A0422003F065B4F666D7D077F6F9C
:1003DD0008160000000000000000012600010C00BE
:1003ED00010D00012700020A0000010900010800AB
:100026007528017529017F0112000E7F011203FE5A
:10003600E50C65286075E5096529606F850929E580
:1000460009B409005065900053F828287302006E21
:1000560002007402007D02007F0200880200910205
:10006600009602009F0200A87F018F99803D759936
:10007600027F018F99803480127599037F018F99D1
:1000860080297599047F018F99802075992E801B90
:100096007599057F018F9980127599067F018F9951
:1000A6008009759920750901850C28E50864087092
:1000B60051E50E540F75F00AA4FFE50F540F2FF506
:1000C60027E510540F75F00AA4FFE511540F2FF51C
:1000D6000DE512540F75F00AA4FFE513540F2FF522
:1000E6000CE514540F75F00AA4FFE515540F7C00B7
:1000F6002FFFEC35F0FE7D0A1201DB8E0A8F0BE432
:10010600F508E52775F00A8475F00A84E5F0900491
:100116002293F51DE52775F00A84E5F093F51C4357
:100126001C80E50D75F00A8475F00A84E5F093F5F8
:100136001BE50D75F00A84E5F093F51A431A80E580
:100146000C75F00A8475F00A84E5F093F519E50C50
:1001560075F00A84E5F093F518431880AE0AAF0BE4
:100166007C007D641201ED7C007D0A1201ED742293
:100176002DF58274043CF583E493F517AE0AAF0BB4
:100186007C007D0A1201ED7C007D0A1201ED7422CD
:100196002DF58274043CF583E493F5167B007A0012
:0801A60079161202CE020036A8
:10000E00438902E4F58AF58CD2A9D2AFEF24FF9290
:02001E008C2232
:1003FE00438920758BFF758DFF438780759850D28A
:09040E00ACD2AFEF24FF928E2264
:0B041700EF1FAC0670011E4C70F622B7
:0602CE008B2A8A2B892C0B
:1002D400E4F52DC3E52D9408748094805073E4F5FF
:1002E40080E52DB40800504D9002F3F828287302DD
:1002F400033302032F02032702032302031B020317
:100304001702030F02030BD2A28002C2A2D2A3D20D
:10031400A48022D2A28002C2A2C2A3D2A48016D2F6
:10032400A28002C2A2D2A3C2A4800AD2A28002C224
:10033400A2C2A3C2A4AB2AAA2BA92C852D827583A1
:10034400001201AEF5807F557E00120417052D8042
:010354008226
:010355002285
:03000B0002035697
:10035600C0E0C0D00526C3E5269412748094804080
:100366004C7405250BF50BE4350AF50A752600C312
:10037600E50B94E8E50A94034033050C750A00750D
:100386000B00E50C943C748094804021050D750C9F
:1003960000E50D943C7480948040120527750D008D
:1003A600E5279418748094804003752700D0D0D038
:0203B600E03233
:030023000203B81D
:1003B800C0E0C0D075D000C00030980B740E25087E
:1003C800F8A6990508C2983099040509C299D00081
:0503D800D0D0D0E0329E
:03000000020242B7
:0C024200787FE4F6D8FD75812D0202895A
:1001AE00BB010CE58229F582E5833AF583E0225006
:1001BE0006E92582F8E622BBFE06E92582F8E22250
:0D01CE00E58229F582E5833AF583E493226A
:1001DB00EF8DF0A4A8F0CF8CF0A428CE8DF0A42E38
:0201EB00FE22F2
:1001ED00BC000BBE0029EF8DF084FFADF022E4CCF6
:1001FD00F875F008EF2FFFEE33FEEC33FCEE9DECBF
:10020D00984005FCEE9DFE0FD5F0E9E4CEFD22ED04
:10021D00F8F5F0EE8420D21CFEADF075F008EF2F4E
:10022D00FFED33FD4007985006D5F0F222C398FD3F
:05023D000FD5F0EA22DC
:10024E00020026E493A3F8E493A34003F68001F2A0
:10025E0008DFF48029E493A3F85407240CC8C333B1
:10026E00C4540F4420C8834004F456800146F6DF80
:10027E00E4800B01020408102040809003DDE47E30
:10028E00019360BCA3FF543F30E509541FFEE49375
:10029E00A360010ECF54C025E060A840B8E493A33C
:1002AE00FAE493A3F8E493A3C8C582C8CAC583CA67
:1002BE00F0A3C8C582C8CAC583CADFE9DEE780BE1F
:0103FD0000FF
:00000001FF
