:10016D00100880402010080402010042E74200817F
:02017D00663CDE
:0B019200EF1FAC0670011E4C70F6223F
:07019D00D288D2A8D2AF22E4
:0A0092008B188A19891A8C1B8D1C2B
:10009C00E4FDEDC3940874809480505BAB18AA19EE
:1000AC00A91A8D82758300120140FF7580FFE4FE52
:1000BC00EEC39408748094805018EFC41313135437
:1000CC000124FF92B4EF25E0FFD2B60000C2B60EB9
:1000DC0080DED2B50000C2B5ED2408F582E433F51C
:1000EC0083AB18AA19A91A120140F4F580AF1CAE03
:0700FC001B1201920D809B15
:0101030022D9
:1001800012019D7B007A0079087D557C0012009257
:0201900080F1FC
:03000300020104F3
:0F010400C0E0C0D075D000C000C004C006C00766
:100113007FE87E0312019220B216E4FFEFC3940836
:1001230074809480500A74102FF8E6F4F60F80EC74
:0D013300D007D006D004D000D0D0D0E032EC
:03000000020006F5
:0C000600787FE4F6D8FD75811C02004DE7
:10014000BB010CE58229F582E5833AF583E0225074
:1001500006E92582F8E622BBFE06E92582F8E222BE
:0D016000E58229F582E5833AF583E49322D8
:10001200020180E493A3F8E493A34003F68001F283
:1000220008DFF48029E493A3F85407240CC8C333EF
:10003200C4540F4420C8834004F456800146F6DFBE
:10004200E4800B010204081020408090016DE47EE0
:10005200019360BCA3FF543F30E509541FFEE493B3
:10006200A360010ECF54C025E060A840B8E493A37A
:10007200FAE493A3F8E493A3C8C582C8CAC583CAA5
:10008200F0A3C8C582C8CAC583CADFE9DEE780BE5D
:01017F00007F
:00000001FF
