:1001C8008040201008040201804020100804020129
:1001950078087C007D007BFF7A0179C87E007F08A6
:1001A5001200D378107C007D007BFF7A0179D07E28
:1001B500007F081200D37B007A0079107D5512016B
:0301C5002680F39E
:0B01E400EF1FAC0670011E4C70F622ED
:080126008B188A19891A8D1B40
:10012E00E4FDEDC3940874809480505AAB18AA195C
:10013E00A91A8D827583001200F9FF7580FFE4F510
:10014E001CE51CC39408748094805019EFC41313DB
:10015E0013540124FF92B4EF25E0FFD2B60000C283
:10016E00B6051C80DCD2B50000C2B5AB18AA19A921
:10017E001A851C827583001200F9F580AF1B7E0074
:06018E001201E40D809C4B
:010194002248
:030000000201D822
:0C01D800787FE4F6D8FD75811C020195CB
:10000300E709F608DFFA8046E709F208DFFA803EDF
:1000130088828C83E709F0A3DFFA8032E309F608CC
:10002300DFFA8078E309F208DFFA807088828C8334
:10003300E309F0A3DFFA806489828A83E0A3F608E8
:10004300DFFA805889828A83E0A3F208DFFA804CC2
:1000530080D280FA80C680D4806980F28033801099
:1000630080A680EA809A80A880DA80E280CA803302
:1000730089828A83ECFAE493A3C8C582C8CCC5837A
:10008300CCF0A3C8C582C8CCC583CCDFE9DEE7804A
:100093000D89828A83E493A3F608DFF9ECFAA9F0C9
:1000A300EDFB2289828A83ECFAE0A3C8C582C8CC1F
:1000B300C583CCF0A3C8C582C8CCC583CCDFEADE38
:1000C300E880DB89828A83E493A3F208DFF980CC9A
:1000D30088F0EF60010E4E60C388F0ED2402B40493
:1000E3000050B9F582EB2402B4040050AF2323453A
:0600F3008223900053730C
:1000F900BB010CE58229F582E5833AF583E02250BC
:1001090006E92582F8E622BBFE06E92582F8E22205
:0D011900E58229F582E5833AF583E493221F
:00000001FF
