:10000300E4F5A030B10F30B00C30B20930B3067E46
:10001300007F0180047E007F00EF4E70E675A0FF35
:100023007F1E7E4E12023875080F75099E30B1226D
:1000330030B01F30B21C30B319E50945086013B264
:10004300957F2E7E00120238E509150970DF150829
:1000530080DB30B10F30B00C30B20930B3067E0014
:100063007F0180047E007F00EF4E700302021F7544
:10007300080F75099E30B12230B01F30B21C30B367
:1000830019E50945086013B2957F297E00120238ED
:10009300E509150970DF150880DB30B10F30B00CAE
:1000A30030B20930B3067E007F0180047E007F00FA
:1000B300EF4E700302021F75080F75099E30B122BF
:1000C30030B01F30B21C30B319E50945086013B2D4
:1000D300957F247E00120238E509150970DF1508A3
:1000E30080DB30B10F30B00C30B20930B3067E0084
:1000F3007F0180047E007F00EF4E700302021F75B4
:10010300080F75099E30B12230B01F30B21C30B3D6
:1001130019E50945086013B2957F227E0012023863
:10012300E509150970DF150880DB30B10F30B00C1D
:1001330030B20930B3067E007F0180047E007F0069
:10014300EF4E700302021F75080F75099E30B1222E
:1001530030B01F30B21C30B319E50945086013B243
:10016300957F1E7E00120238E509150970DF150818
:1001730080DB30B10F30B00C30B20930B3067E00F3
:100183007F0180047E007F00EF4E700302021F7523
:10019300080F75099E30B12230B01F30B21C30B346
:1001A30019E50945086013B2957F1A7E00120238DB
:1001B300E509150970DF150880DB30B10F30B00C8D
:1001C30030B20930B3067E007F0180047E007F00D9
:1001D300EF4E604875080F75099E30B12230B01F8D
:1001E30030B21C30B319E50945086013B2957F1787
:1001F3007E00120238E509150970DF150880DB302F
:10020300B10F30B00C30B20930B3067E007F0180ED
:10021300047E007F00EF4E600302002AE4F5A07F16
:090223001E7E4E12023802000694
:0B023800EF1FAC0670011E4C70F62298
:0300000002022CCD
:0C022C00787FE4F6D8FD7581090200031C
:00000001FF
