:10058C00010800010900010A01080B00000000002D
:03059C000000005C
:0A05BE00E4FF1205A012030680FB03
:10030600E50875F00A84E5F06003020409F518AF04
:10031600187E00C3EF94087480948040030203DCC7
:10032600E5092FFDE433FCC3ED9408EC648094806A
:100336005011EC1202117B3A7A92796478411201DB
:1003460006803DAD097C00ED2518FFEC33FEC3EFBA
:100356009410EE64809480502FED24F8FFEC34FF67
:10036600FEEF2518FDEC3EFC1202117B3A7A9279DB
:100376006478C1120106E4FBFA79C87842120015C6
:100386008F1C8E1B8D1A8C19AF1CAE1BAD1AAC19A7
:1003960012024AEF75F00A84C3E5F094057480945E
:1003A60080AF1CAE1BAD1AAC19500F12024AEF7586
:1003B600F00A84AEF0C3EF9E800F12024AEF75F08A
:1003C6000A84AEF0C3EF9E240AFF740B2518F8A624
:1003D600070518020315E50875F00A8475F00A8406
:1003E600E5F0701FF508AF09FEEF64087004F50A22
:1003F6008007EF4E7003750A01E50A60040509805F
:10040600021509E4F518FFE518FD7C00C39408748D
:100416008094805027740B2518F8E6600C430780FB
:10042600740B2518F874F626F6C3ED9407EC648071
:1004360094805004EFC313FF051880CB8FA00508E6
:010446002293
:1005A000438902758A9C758C9CD2A9D2AFEF24FF37
:0305B000928C2208
:03000B000204D319
:1004D300C0E0C0F0C083C082C0D075D000C000C0EF
:1004E30001C002C003C004C005C006C00712030652
:1004F300D007D006D005D004D003D002D001D0005D
:0B050300D0D0D082D083D0F0D0E03206
:10053F00C2A58F807F287E00120550D2A77F287E0C
:01054F0000AB
:0A055000EF1F70011E144E70F72219
:0A05C800C2A7C2A612053FC2A72277
:0F055A00AB1DAA1EA91F8D827583001202CBFF55
:0A056900C2A7D2A612053FC2A722C6
:100573007F381205C87F0C1205C87F061205C87F95
:09058300011205C87F800205C8C1
:06050E008B1D8A1E891FEF
:10051400120573E4FDEDC3941074809480500612A8
:10052400055A0D80F07FC01205C8EDC39420748075
:0A0534009480500612055A0D80F065
:01053E00229A
:0B05B300C288D2A8C28AD2AAD2AF220E
:0A05D200EF1F70011E144E70F72297
:10000E000202B6E86480F8E933E83360110460F068
:10001E00ED33EC337009E8FCE9FDEAFEEBFF220458
:10002E0060DED3EB9FEA9EE99DE8C2E78CF0C2F753
:10003E0095F0400CE8CCF8E9CDF9EACEFAEBCFFB1F
:10004E0012028185D0F05804700320D5B3E80470F5
:10005E00075002B2D50202C092D5EC0460F7E4CC90
:10006E00C0E0C398F8603B94186008400DD0E0FBE8
:10007E00020298E4FBFAC9FC8028E830E406E4C9E1
:10008E00FBE4CAFCE830E305E4C9CACBFCE854073C
:10009E006010F8C3E913F9EA13FAEB13FBEC13FC47
:1000AE00D8F130F52FC3E49CFCEF9BFFEE9AFEEDEA
:1000BE0099FDD0E0FBEF4E4D4C701222DB03020295
:1000CE00BDEC2CFCEF33FFEE33FEED33FDED30E7F0
:1000DE00EB020298EF2BFFEE3AFEED39FDD0E0FB7E
:1000EE0050130BBB00030202C0ED13FDEE13FEEF27
:0800FE0013FFEC13FC02029851
:10010600EC4D6011E8497017ED33EC3304600DE4F3
:10011600FCFFFEFD22E933E8330470F80202B61252
:10012600028158046009E4CC248150062850090253
:1001360002C02840030202BDC0E0EB4A7044B98009
:1001460006D0E0FB0202ACEF4E701CBD8008EBFF50
:10015600EAFEE9FD80EBE98DF0A4FEE5F00201EF91
:10016600E9CDF9EAFEEBFFEF89F0A4FCE5F0CE89D4
:10017600F0A42EFFE435F0CD89F0A42DFEE435F091
:100186008067EF4E7005BD80D780C3EF8BF0A4ACBF
:10019600F0EE8BF0A42CFCE435F0F8EF8AF0A42CFA
:1001A600E5F038FCE433CB8DF0A42CFCE5F03BF80D
:1001B600EE8AF0A42CFCE5F038F8E433CF89F0A4FD
:1001C6002CFCE5F038CF3400CE89F0A42FFFE5F003
:1001D6003EFEE433C98DF0A42EFEE5F039CD8AF05B
:1001E600A42FFFE5F03EFEE43DFD33D0E0FB5007D3
:1001F6000BBB000F0202C0EC2CFCEF33FFEE33FE0C
:06020600ED33FD02029839
:10020C0075F020800E75F010800575F0087D007E6D
:10021C00007F003392D530D5031202F8EC33401036
:10022C00EF33FFEE33FEED33FDEC33FCD5F0ED2276
:0E023C00E5F0247EA2D513CC92E7CDCEFF22B2
:10024A00EDD2E7CD33EC3392D524814006E4FFFEAC
:10025A00FDFC22FCE4CFCECDCC24E0501174FF800B
:10026A00EDC3CC13CCCD13CDCE13CECF13CF0470A8
:07027A00F030D5DE0202F8AE
:10028100E9D2E7C933E833F892D5EDD2E7CD33ECC3
:0702910033FC5002B2D5223C
:10029800EC30E7100FBF000C0EBE00080DBD0004C7
:1002A8000BEB6014A2D5EB13FCED92E7FD2274FF73
:1002B800FCFDFEFF22E480F8A2D574FF13FC7D80CC
:0302C800E480EFE0
:03000000020447B0
:0C044700787FE4F6D8FD75811F02048E5A
:1002CB00BB010CE58229F582E5833AF583E02250E8
:1002DB0006E92582F8E622BBFE06E92582F8E22232
:0D02EB00E58229F582E5833AF583E493224C
:0E02F800C3E49FFFE49EFEE49DFDE49CFC2217
:100453000205BEE493A3F8E493A34003F68001F2FC
:1004630008DFF48029E493A3F85407240CC8C333AA
:10047300C4540F4420C8834004F456800146F6DF79
:10048300E4800B010204081020408090058CE47E78
:10049300019360BCA3FF543F30E509541FFEE4936E
:1004A300A360010ECF54C025E060A840B8E493A335
:1004B300FAE493A3F8E493A3C8C582C8CAC583CA60
:1004C300F0A3C8C582C8CAC583CADFE9DEE780BE18
:01059F00005B
:00000001FF
