:0800E60002080000020A0000FC
:1000D600438901E4F58A758CDCD2A9D2AFD28C2291
:10009A001200D675A0FFE509B4F4FBE508B401F631
:1000AA00050BE50B7002050AE4F508F50963A0FFE4
:0200BA0080E4E0
:03000B000200BC34
:1000BC00C0E0C0D0758A00758CDC740A2509F5097E
:0A00CC00E43508F508D0D0D0E0328A
:0300000002000EED
:0C000E00787FE4F6D8FD75810B020055E8
:10001A0002009AE493A3F8E493A34003F68001F262
:10002A0008DFF48029E493A3F85407240CC8C333E7
:10003A00C4540F4420C8834004F456800146F6DFB6
:10004A00E4800B01020408102040809000E6E47E60
:10005A00019360BCA3FF543F30E509541FFEE493AB
:10006A00A360010ECF54C025E060A840B8E493A372
:10007A00FAE493A3F8E493A3C8C582C8CAC583CA9D
:10008A00F0A3C8C582C8CAC583CADFE9DEE780BE55
:0100EE000011
:00000001FF
