:0A035D003F065B4F666D7D077F6F62
:10030B00080E00000000000000000118000216009B
:10031B000002080000020A0000020C000002190093
:01032B0000D1
:10034000438902E4F58AF58CD2A9D2AFEF24FF925B
:020350008C22FD
:0B035200EF1FAC0670011E4C70F6227D
:10000E00AE19AF1A7C007D0A1202447C007D0A12E2
:10001E000244745D2DF58274033CF583E493F5156B
:10002E00AE19AF1A7C007D0A120244745D2DF58262
:10003E0074033CF583E493F514431480AE0CAF0DBA
:10004E007C007D0A1202447C007D0A120244745D1B
:10005E002DF58274033CF583E493F513AE0CAF0DCE
:10006E007C007D0A120244745D2DF58274033CF50A
:10007E0083E493F512431280AE0AAF0B7C007D0A27
:10008E001202447C007D0A120244745D2DF58274C6
:10009E00033CF583E493F511AE0AAF0B7C007D0AA9
:1000AE00120244745D2DF58274033CF583E493F5DE
:1000BE0010431080AE08AF097C007D641202447CB0
:1000CE00007D0A120244745D2DF58274033CF583A3
:1000DE00E493F50FAE08AF097C007D0A1202447C52
:1000EE00007D0A120244745D2DF58274033CF58383
:0500FE00E493F50E2261
:06018F008B1B8A1C891D78
:10019500E4F51EC3E51E9408748094805073E4F55D
:1001A50080E51EB40800504D9001B4F8282873026C
:1001B50001F40201F00201E80201E40201DC02019E
:1001C500D80201D00201CCD2A28002C2A2D2A3D20F
:1001D500A48022D2A28002C2A2C2A3D2A48016D237
:1001E500A28002C2A2D2A3C2A4800AD2A28002C265
:1001F500A2C2A3C2A4AB1BAA1CA91D851E8275831E
:1002050000120217F5807F557E00120352051E80ED
:010215008266
:0102160022C5
:10032D007F0112034012000E7B007A00790E12013C
:03033D008F80F2BC
:03000B0002029955
:10029900C0E0C0D00517E5177002051664124516AF
:1002A900705B74052509F509E43508F5087516002C
:1002B900751700E509B4E845E508B40340050BE501
:1002C9000B7002050A750800750900643C450A703F
:1002D9002C050DE50D7002050C750A00750B0064FF
:1002E9003C450C7018051AE51A70020519750C00C1
:1002F900750D00641845197004F519F51AD0D0D098
:02030900E032E0
:03000000020103F7
:0C010300787FE4F6D8FD75811E02014AE9
:10021700BB010CE58229F582E5833AF583E022509C
:1002270006E92582F8E622BBFE06E92582F8E222E6
:0D023700E58229F582E5833AF583E4932200
:10024400BC000BBE0029EF8DF084FFADF022E4CC9E
:10025400F875F008EF2FFFEE33FEEC33FCEE9DEC67
:10026400984005FCEE9DFE0FD5F0E9E4CEFD22EDAD
:10027400F8F5F0EE8420D21CFEADF075F008EF2FF7
:10028400FFED33FD4007985006D5F0F222C398FDE8
:050294000FD5F0EA2285
:10010F0002032DE493A3F8E493A34003F68001F2D6
:10011F0008DFF48029E493A3F85407240CC8C333F1
:10012F00C4540F4420C8834004F456800146F6DFC0
:10013F00E4800B010204081020408090030BE47E42
:10014F00019360BCA3FF543F30E509541FFEE493B5
:10015F00A360010ECF54C025E060A840B8E493A37C
:10016F00FAE493A3F8E493A3C8C582C8CAC583CAA7
:10017F00F0A3C8C582C8CAC583CADFE9DEE780BE5F
:01032C0000D0
:00000001FF
