:10016200003F065B4F666D7D077F6F777C395E7956
:01017200711B
:0C00F20012009AEF6030E50F70028020D1
:1000FE00E4F510C3E51094077480948050127409CF
:10010E002510F8E6FF74082510F8A607051080E301
:0A011E0012009AEF90016293F50FB2
:0D0128007B007A0079087D5512000380BD30
:0B017F00EF1FAC0670011E4C70F62252
:080003008B118A1289138D1480
:0D000B00751510AF151515EF700302009963
:10001800E4F516C3E51694087480948050E8E4F576
:1000280080E516B40800504D900037F82828730270
:10003800004F02005302005B02005F0200670200EB
:100048006B020073020077D2A28002C2A2D2A3D2AE
:10005800A48022D2A28002C2A2C2A3D2A48016D2B5
:10006800A28002C2A2D2A3C2A4800AD2A28002C2E3
:10007800A2C2A3C2A4AB11AA12A9138516827583C2
:1000880000120135F580AF147E0012017F0516803D
:0100980082E5
:010099002244
:10009A0075900FAF90EF640F604BAF90EF24F5604F
:1000AA001024FE6011146013240770127511018068
:1000BA000D7511028008751103800375110475907E
:1000CA00F0AF90EF2450600C24E0600C24F0600C38
:1000DA002470800E7404800674088002740C251142
:0700EA00F511AF11227F00A8
:0100F10022EC
:0300000002017387
:0C017300787FE4F6D8FD7581160200F2DA
:10013500BB010CE58229F582E5833AF583E022507F
:1001450006E92582F8E622BBFE06E92582F8E222C9
:0D015500E58229F582E5833AF583E49322E3
:00000001FF
