:1001EC00003F065B4F666D7D077F6F777C395E79CC
:0101FC007191
:0C017C00120124EF6030E50F70028020BB
:10018800E4F510C3E5109407748094805012740944
:100198002510F8E6FF74082510F8A607051080E377
:0A01A800120124EF9001EC93F50F13
:0D01B2007B007A0079087D5512000380BDA6
:0B020900EF1FAC0670011E4C70F622C7
:08009A008B178A1889198D1AD1
:1000A200E4F51BC3E51B9408748094805073E4F557
:1000B20080E51BB40800504D9000C1F82828730257
:1000C20000D90200DD0200E50200E90200F10200AF
:1000D200F50200FD020101D2A28002C2A2D2A3D285
:1000E200A48022D2A28002C2A2C2A3D2A48016D22B
:1000F200A28002C2A2D2A3C2A4800AD2A28002C259
:10010200A2C2A3C2A4AB17AA18A919851B82758320
:10011200001201BFF580AF1A7E00120209051B8092
:01012200825A
:0101230022B9
:080003008B118A1289138D1480
:0D000B00751510AF151515EF700302009963
:10001800E4F516C3E51694087480948050E8E4F576
:1000280080E516B40800504D900037F82828730270
:10003800004F02005302005B02005F0200670200EB
:100048006B020073020077D2A28002C2A2D2A3D2AE
:10005800A48022D2A28002C2A2C2A3D2A48016D2B5
:10006800A28002C2A2D2A3C2A4800AD2A28002C2E3
:10007800A2C2A3C2A4AB11AA12A9138516827583C2
:10008800001201BFF580AF147E0012020905168028
:0100980082E5
:010099002244
:1001240075900FAF90EF640F604BAF90EF24F560C4
:100134001024FE60111460132407701275110180DD
:100144000D751102800875110380037511047590F3
:10015400F0AF90EF2450600C24E0600C24F0600CAD
:100164002470800E7404800674088002740C2511B7
:07017400F511AF11227F001D
:01017B002261
:030000000201FDFD
:0C01FD00787FE4F6D8FD75811B02017CC0
:1001BF00BB010CE58229F582E5833AF583E02250F5
:1001CF0006E92582F8E622BBFE06E92582F8E2223F
:0D01DF00E58229F582E5833AF583E4932259
:00000001FF
